{
  "address": "0xa1f3b347F33726e7637452E96C464ED55e7ec7D2",
  "abi": [
    {
      "inputs": [
        {
          "internalType": "address",
          "name": "_owner",
          "type": "address"
        }
      ],
      "stateMutability": "nonpayable",
      "type": "constructor"
    },
    {
      "anonymous": false,
      "inputs": [
        {
          "indexed": true,
          "internalType": "address",
          "name": "previousOwner",
          "type": "address"
        },
        {
          "indexed": true,
          "internalType": "address",
          "name": "newOwner",
          "type": "address"
        }
      ],
      "name": "OwnershipTransferred",
      "type": "event"
    },
    {
      "inputs": [
        {
          "internalType": "address",
          "name": "target",
          "type": "address"
        },
        {
          "internalType": "bytes",
          "name": "data",
          "type": "bytes"
        }
      ],
      "name": "call",
      "outputs": [],
      "stateMutability": "payable",
      "type": "function"
    },
    {
      "inputs": [],
      "name": "owner",
      "outputs": [
        {
          "internalType": "address",
          "name": "",
          "type": "address"
        }
      ],
      "stateMutability": "view",
      "type": "function"
    },
    {
      "inputs": [],
      "name": "renounceOwnership",
      "outputs": [],
      "stateMutability": "nonpayable",
      "type": "function"
    },
    {
      "inputs": [
        {
          "internalType": "address",
          "name": "newOwner",
          "type": "address"
        }
      ],
      "name": "transferOwnership",
      "outputs": [],
      "stateMutability": "nonpayable",
      "type": "function"
    }
  ],
  "transactionHash": "0xf60cc705c9b1bce553171128113de36fa8b97f008006544d5221c1df62efb752",
  "args": [
    "0x58e7A64B99968A0f388c3dbc60594C4AEd169a8a"
  ],
  "solcInputHash": "c44d239f22ff9f8d6d4e4a235564da70",
  "bytecode": "0x608060405234801561001057600080fd5b506040516105c83803806105c883398101604081905261002f91610167565b61003833610047565b61004181610097565b50610195565b600080546001600160a01b038381166001600160a01b0319831681178455604051919092169283917f8be0079c531659141344cd1fd0a4f28419497f9722a3daafe3b4186f6b6457e09190a35050565b6000546001600160a01b031633146100f65760405162461bcd60e51b815260206004820181905260248201527f4f776e61626c653a2063616c6c6572206973206e6f7420746865206f776e657260448201526064015b60405180910390fd5b6001600160a01b03811661015b5760405162461bcd60e51b815260206004820152602660248201527f4f776e61626c653a206e6577206f776e657220697320746865207a65726f206160448201526564647265737360d01b60648201526084016100ed565b61016481610047565b50565b600060208284031215610178578081fd5b81516001600160a01b038116811461018e578182fd5b9392505050565b610424806101a46000396000f3fe60806040526004361061003f5760003560e01c80631b8b921d14610044578063715018a6146100595780638da5cb5b1461006e578063f2fde38b1461009a575b600080fd5b6100576100523660046102d8565b6100ba565b005b34801561006557600080fd5b5061005761017a565b34801561007a57600080fd5b50600054604080516001600160a01b039092168252519081900360200190f35b3480156100a657600080fd5b506100576100b53660046102b7565b6101b0565b6000546001600160a01b031633146100ed5760405162461bcd60e51b81526004016100e4906103b9565b60405180910390fd5b600080846001600160a01b031634858560405161010b929190610356565b60006040518083038185875af1925050503d8060008114610148576040519150601f19603f3d011682016040523d82523d6000602084013e61014d565b606091505b50915091508181906101725760405162461bcd60e51b81526004016100e49190610366565b505050505050565b6000546001600160a01b031633146101a45760405162461bcd60e51b81526004016100e4906103b9565b6101ae600061024b565b565b6000546001600160a01b031633146101da5760405162461bcd60e51b81526004016100e4906103b9565b6001600160a01b03811661023f5760405162461bcd60e51b815260206004820152602660248201527f4f776e61626c653a206e6577206f776e657220697320746865207a65726f206160448201526564647265737360d01b60648201526084016100e4565b6102488161024b565b50565b600080546001600160a01b038381166001600160a01b0319831681178455604051919092169283917f8be0079c531659141344cd1fd0a4f28419497f9722a3daafe3b4186f6b6457e09190a35050565b80356001600160a01b03811681146102b257600080fd5b919050565b6000602082840312156102c8578081fd5b6102d18261029b565b9392505050565b6000806000604084860312156102ec578182fd5b6102f58461029b565b9250602084013567ffffffffffffffff80821115610311578384fd5b818601915086601f830112610324578384fd5b813581811115610332578485fd5b876020828501011115610343578485fd5b6020830194508093505050509250925092565b6000828483379101908152919050565b6000602080835283518082850152825b8181101561039257858101830151858201604001528201610376565b818111156103a35783604083870101525b50601f01601f1916929092016040019392505050565b6020808252818101527f4f776e61626c653a2063616c6c6572206973206e6f7420746865206f776e657260408201526060019056fea2646970667358221220550958879b08f85de33edd16f6b989d8b94137dc3bc2b9e63342a144361c631764736f6c63430008030033",
  "devdoc": {
    "kind": "dev",
    "methods": {
      "owner()": {
        "details": "Returns the address of the current owner."
      },
      "renounceOwnership()": {
        "details": "Leaves the contract without owner. It will not be possible to call `onlyOwner` functions anymore. Can only be called by the current owner. NOTE: Renouncing ownership will leave the contract without an owner, thereby removing any functionality that is only available to the owner."
      },
      "transferOwnership(address)": {
        "details": "Transfers ownership of the contract to a new account (`newOwner`). Can only be called by the current owner."
      }
    },
    "version": 1
  },
  "userdoc": {
    "kind": "user",
    "methods": {},
    "version": 1
  },
  "storageLayout": {
    "storage": [
      {
        "astId": 7,
        "contract": "contracts/ProtocolFeeVault.sol:ProtocolFeeVault",
        "label": "_owner",
        "offset": 0,
        "slot": "0",
        "type": "t_address"
      }
    ],
    "types": {
      "t_address": {
        "encoding": "inplace",
        "label": "address",
        "numberOfBytes": "20"
      }
    }
  }
}